{
	"contracts/dataTypes.sol": {
		"dataTypes": {
			"abi": [
				{
					"inputs": [],
					"name": "Addr",
					"outputs": [
						{
							"internalType": "address",
							"name": "",
							"type": "address"
						}
					],
					"stateMutability": "view",
					"type": "function"
				},
				{
					"inputs": [],
					"name": "defaultAddress",
					"outputs": [
						{
							"internalType": "address",
							"name": "",
							"type": "address"
						}
					],
					"stateMutability": "view",
					"type": "function"
				},
				{
					"inputs": [],
					"name": "defaultBool",
					"outputs": [
						{
							"internalType": "bool",
							"name": "",
							"type": "bool"
						}
					],
					"stateMutability": "view",
					"type": "function"
				},
				{
					"inputs": [],
					"name": "defaultBytes",
					"outputs": [
						{
							"internalType": "bytes",
							"name": "",
							"type": "bytes"
						}
					],
					"stateMutability": "view",
					"type": "function"
				},
				{
					"inputs": [],
					"name": "defaultBytes1",
					"outputs": [
						{
							"internalType": "bytes1",
							"name": "",
							"type": "bytes1"
						}
					],
					"stateMutability": "view",
					"type": "function"
				},
				{
					"inputs": [],
					"name": "defaultInt",
					"outputs": [
						{
							"internalType": "int256",
							"name": "",
							"type": "int256"
						}
					],
					"stateMutability": "view",
					"type": "function"
				},
				{
					"inputs": [],
					"name": "defaultString",
					"outputs": [
						{
							"internalType": "string",
							"name": "",
							"type": "string"
						}
					],
					"stateMutability": "view",
					"type": "function"
				},
				{
					"inputs": [],
					"name": "defaultUint",
					"outputs": [
						{
							"internalType": "uint256",
							"name": "",
							"type": "uint256"
						}
					],
					"stateMutability": "view",
					"type": "function"
				},
				{
					"inputs": [],
					"name": "maxInt",
					"outputs": [
						{
							"internalType": "int256",
							"name": "",
							"type": "int256"
						}
					],
					"stateMutability": "view",
					"type": "function"
				},
				{
					"inputs": [],
					"name": "maxUint",
					"outputs": [
						{
							"internalType": "uint256",
							"name": "",
							"type": "uint256"
						}
					],
					"stateMutability": "view",
					"type": "function"
				},
				{
					"inputs": [],
					"name": "minInt",
					"outputs": [
						{
							"internalType": "int256",
							"name": "",
							"type": "int256"
						}
					],
					"stateMutability": "view",
					"type": "function"
				},
				{
					"inputs": [],
					"name": "minUint",
					"outputs": [
						{
							"internalType": "uint256",
							"name": "",
							"type": "uint256"
						}
					],
					"stateMutability": "view",
					"type": "function"
				}
			],
			"devdoc": {
				"kind": "dev",
				"methods": {},
				"version": 1
			},
			"evm": {
				"assembly": "    /* \"contracts/dataTypes.sol\":61:553  contract dataTypes {... */\n  mstore(0x40, 0x80)\n    /* \"contracts/dataTypes.sol\":335:377  0x5B38Da6a701c568545dCfcB03FcB875f56beddC4 */\n  0x5b38da6a701c568545dcfcb03fcb875f56beddc4\n    /* \"contracts/dataTypes.sol\":313:377  address public Addr = 0x5B38Da6a701c568545dCfcB03FcB875f56beddC4 */\n  0x06\n  exp(0x0100, 0x00)\n  dup2\n  sload\n  dup2\n  0xffffffffffffffffffffffffffffffffffffffff\n  mul\n  not\n  and\n  swap1\n  dup4\n  0xffffffffffffffffffffffffffffffffffffffff\n  and\n  mul\n  or\n  swap1\n  sstore\n  pop\n    /* \"contracts/dataTypes.sol\":406:419  type(int).min */\n  0x8000000000000000000000000000000000000000000000000000000000000000\n    /* \"contracts/dataTypes.sol\":386:419  int public minInt = type(int).min */\n  0x07\n  sstore\n    /* \"contracts/dataTypes.sol\":446:459  type(int).max */\n  0x7fffffffffffffffffffffffffffffffffffffffffffffffffffffffffffffff\n    /* \"contracts/dataTypes.sol\":426:459  int public maxInt = type(int).max */\n  0x08\n  sstore\n    /* \"contracts/dataTypes.sol\":490:504  type(uint).min */\n  0x00\n    /* \"contracts/dataTypes.sol\":468:504  uint public minUint = type(uint).min */\n  0x09\n  sstore\n    /* \"contracts/dataTypes.sol\":533:547  type(uint).max */\n  0xffffffffffffffffffffffffffffffffffffffffffffffffffffffffffffffff\n    /* \"contracts/dataTypes.sol\":511:547  uint public maxUint = type(uint).max */\n  0x0a\n  sstore\n    /* \"contracts/dataTypes.sol\":61:553  contract dataTypes {... */\n  callvalue\n  dup1\n  iszero\n  tag_1\n  jumpi\n  0x00\n  dup1\n  revert\ntag_1:\n  pop\n  dataSize(sub_0)\n  dup1\n  dataOffset(sub_0)\n  0x00\n  codecopy\n  0x00\n  return\nstop\n\nsub_0: assembly {\n        /* \"contracts/dataTypes.sol\":61:553  contract dataTypes {... */\n      mstore(0x40, 0x80)\n      callvalue\n      dup1\n      iszero\n      tag_1\n      jumpi\n      0x00\n      dup1\n      revert\n    tag_1:\n      pop\n      jumpi(tag_2, lt(calldatasize, 0x04))\n      shr(0xe0, calldataload(0x00))\n      dup1\n      0x7a4c2571\n      gt\n      tag_15\n      jumpi\n      dup1\n      0x7a4c2571\n      eq\n      tag_9\n      jumpi\n      dup1\n      0x7e4e14cc\n      eq\n      tag_10\n      jumpi\n      dup1\n      0xd668f5b5\n      eq\n      tag_11\n      jumpi\n      dup1\n      0xe96b824a\n      eq\n      tag_12\n      jumpi\n      dup1\n      0xeacc248b\n      eq\n      tag_13\n      jumpi\n      dup1\n      0xeb3d5cdb\n      eq\n      tag_14\n      jumpi\n      jump(tag_2)\n    tag_15:\n      dup1\n      0x1570c2cb\n      eq\n      tag_3\n      jumpi\n      dup1\n      0x16a0c5b5\n      eq\n      tag_4\n      jumpi\n      dup1\n      0x4c00fd84\n      eq\n      tag_5\n      jumpi\n      dup1\n      0x5abe622b\n      eq\n      tag_6\n      jumpi\n      dup1\n      0x5c101693\n      eq\n      tag_7\n      jumpi\n      dup1\n      0x64da813a\n      eq\n      tag_8\n      jumpi\n    tag_2:\n      0x00\n      dup1\n      revert\n        /* \"contracts/dataTypes.sol\":89:112  uint public defaultUint */\n    tag_3:\n      tag_16\n      tag_17\n      jump\t// in\n    tag_16:\n      mload(0x40)\n      tag_18\n      swap2\n      swap1\n      tag_19\n      jump\t// in\n    tag_18:\n      mload(0x40)\n      dup1\n      swap2\n      sub\n      swap1\n      return\n        /* \"contracts/dataTypes.sol\":511:547  uint public maxUint = type(uint).max */\n    tag_4:\n      tag_20\n      tag_21\n      jump\t// in\n    tag_20:\n      mload(0x40)\n      tag_22\n      swap2\n      swap1\n      tag_19\n      jump\t// in\n    tag_22:\n      mload(0x40)\n      dup1\n      swap2\n      sub\n      swap1\n      return\n        /* \"contracts/dataTypes.sol\":147:174  string public defaultString */\n    tag_5:\n      tag_23\n      tag_24\n      jump\t// in\n    tag_23:\n      mload(0x40)\n      tag_25\n      swap2\n      swap1\n      tag_26\n      jump\t// in\n    tag_25:\n      mload(0x40)\n      dup1\n      swap2\n      sub\n      swap1\n      return\n        /* \"contracts/dataTypes.sol\":119:140  int public defaultInt */\n    tag_6:\n      tag_27\n      tag_28\n      jump\t// in\n    tag_27:\n      mload(0x40)\n      tag_29\n      swap2\n      swap1\n      tag_30\n      jump\t// in\n    tag_29:\n      mload(0x40)\n      dup1\n      swap2\n      sub\n      swap1\n      return\n        /* \"contracts/dataTypes.sol\":277:306  address public defaultAddress */\n    tag_7:\n      tag_31\n      tag_32\n      jump\t// in\n    tag_31:\n      mload(0x40)\n      tag_33\n      swap2\n      swap1\n      tag_34\n      jump\t// in\n    tag_33:\n      mload(0x40)\n      dup1\n      swap2\n      sub\n      swap1\n      return\n        /* \"contracts/dataTypes.sol\":243:270  bytes1 public defaultBytes1 */\n    tag_8:\n      tag_35\n      tag_36\n      jump\t// in\n    tag_35:\n      mload(0x40)\n      tag_37\n      swap2\n      swap1\n      tag_38\n      jump\t// in\n    tag_37:\n      mload(0x40)\n      dup1\n      swap2\n      sub\n      swap1\n      return\n        /* \"contracts/dataTypes.sol\":426:459  int public maxInt = type(int).max */\n    tag_9:\n      tag_39\n      tag_40\n      jump\t// in\n    tag_39:\n      mload(0x40)\n      tag_41\n      swap2\n      swap1\n      tag_30\n      jump\t// in\n    tag_41:\n      mload(0x40)\n      dup1\n      swap2\n      sub\n      swap1\n      return\n        /* \"contracts/dataTypes.sol\":386:419  int public minInt = type(int).min */\n    tag_10:\n      tag_42\n      tag_43\n      jump\t// in\n    tag_42:\n      mload(0x40)\n      tag_44\n      swap2\n      swap1\n      tag_30\n      jump\t// in\n    tag_44:\n      mload(0x40)\n      dup1\n      swap2\n      sub\n      swap1\n      return\n        /* \"contracts/dataTypes.sol\":181:204  bool public defaultBool */\n    tag_11:\n      tag_45\n      tag_46\n      jump\t// in\n    tag_45:\n      mload(0x40)\n      tag_47\n      swap2\n      swap1\n      tag_48\n      jump\t// in\n    tag_47:\n      mload(0x40)\n      dup1\n      swap2\n      sub\n      swap1\n      return\n        /* \"contracts/dataTypes.sol\":211:236  bytes public defaultBytes */\n    tag_12:\n      tag_49\n      tag_50\n      jump\t// in\n    tag_49:\n      mload(0x40)\n      tag_51\n      swap2\n      swap1\n      tag_52\n      jump\t// in\n    tag_51:\n      mload(0x40)\n      dup1\n      swap2\n      sub\n      swap1\n      return\n        /* \"contracts/dataTypes.sol\":468:504  uint public minUint = type(uint).min */\n    tag_13:\n      tag_53\n      tag_54\n      jump\t// in\n    tag_53:\n      mload(0x40)\n      tag_55\n      swap2\n      swap1\n      tag_19\n      jump\t// in\n    tag_55:\n      mload(0x40)\n      dup1\n      swap2\n      sub\n      swap1\n      return\n        /* \"contracts/dataTypes.sol\":313:377  address public Addr = 0x5B38Da6a701c568545dCfcB03FcB875f56beddC4 */\n    tag_14:\n      tag_56\n      tag_57\n      jump\t// in\n    tag_56:\n      mload(0x40)\n      tag_58\n      swap2\n      swap1\n      tag_34\n      jump\t// in\n    tag_58:\n      mload(0x40)\n      dup1\n      swap2\n      sub\n      swap1\n      return\n        /* \"contracts/dataTypes.sol\":89:112  uint public defaultUint */\n    tag_17:\n      sload(0x00)\n      dup2\n      jump\t// out\n        /* \"contracts/dataTypes.sol\":511:547  uint public maxUint = type(uint).max */\n    tag_21:\n      sload(0x0a)\n      dup2\n      jump\t// out\n        /* \"contracts/dataTypes.sol\":147:174  string public defaultString */\n    tag_24:\n      0x02\n      dup1\n      sload\n      tag_59\n      swap1\n      tag_60\n      jump\t// in\n    tag_59:\n      dup1\n      0x1f\n      add\n      0x20\n      dup1\n      swap2\n      div\n      mul\n      0x20\n      add\n      mload(0x40)\n      swap1\n      dup2\n      add\n      0x40\n      mstore\n      dup1\n      swap3\n      swap2\n      swap1\n      dup2\n      dup2\n      mstore\n      0x20\n      add\n      dup3\n      dup1\n      sload\n      tag_61\n      swap1\n      tag_60\n      jump\t// in\n    tag_61:\n      dup1\n      iszero\n      tag_62\n      jumpi\n      dup1\n      0x1f\n      lt\n      tag_63\n      jumpi\n      0x0100\n      dup1\n      dup4\n      sload\n      div\n      mul\n      dup4\n      mstore\n      swap2\n      0x20\n      add\n      swap2\n      jump(tag_62)\n    tag_63:\n      dup3\n      add\n      swap2\n      swap1\n      0x00\n      mstore\n      keccak256(0x00, 0x20)\n      swap1\n    tag_64:\n      dup2\n      sload\n      dup2\n      mstore\n      swap1\n      0x01\n      add\n      swap1\n      0x20\n      add\n      dup1\n      dup4\n      gt\n      tag_64\n      jumpi\n      dup3\n      swap1\n      sub\n      0x1f\n      and\n      dup3\n      add\n      swap2\n    tag_62:\n      pop\n      pop\n      pop\n      pop\n      pop\n      dup2\n      jump\t// out\n        /* \"contracts/dataTypes.sol\":119:140  int public defaultInt */\n    tag_28:\n      sload(0x01)\n      dup2\n      jump\t// out\n        /* \"contracts/dataTypes.sol\":277:306  address public defaultAddress */\n    tag_32:\n      0x05\n      0x01\n      swap1\n      sload\n      swap1\n      0x0100\n      exp\n      swap1\n      div\n      0xffffffffffffffffffffffffffffffffffffffff\n      and\n      dup2\n      jump\t// out\n        /* \"contracts/dataTypes.sol\":243:270  bytes1 public defaultBytes1 */\n    tag_36:\n      0x05\n      0x00\n      swap1\n      sload\n      swap1\n      0x0100\n      exp\n      swap1\n      div\n      0xf8\n      shl\n      dup2\n      jump\t// out\n        /* \"contracts/dataTypes.sol\":426:459  int public maxInt = type(int).max */\n    tag_40:\n      sload(0x08)\n      dup2\n      jump\t// out\n        /* \"contracts/dataTypes.sol\":386:419  int public minInt = type(int).min */\n    tag_43:\n      sload(0x07)\n      dup2\n      jump\t// out\n        /* \"contracts/dataTypes.sol\":181:204  bool public defaultBool */\n    tag_46:\n      0x03\n      0x00\n      swap1\n      sload\n      swap1\n      0x0100\n      exp\n      swap1\n      div\n      0xff\n      and\n      dup2\n      jump\t// out\n        /* \"contracts/dataTypes.sol\":211:236  bytes public defaultBytes */\n    tag_50:\n      0x04\n      dup1\n      sload\n      tag_65\n      swap1\n      tag_60\n      jump\t// in\n    tag_65:\n      dup1\n      0x1f\n      add\n      0x20\n      dup1\n      swap2\n      div\n      mul\n      0x20\n      add\n      mload(0x40)\n      swap1\n      dup2\n      add\n      0x40\n      mstore\n      dup1\n      swap3\n      swap2\n      swap1\n      dup2\n      dup2\n      mstore\n      0x20\n      add\n      dup3\n      dup1\n      sload\n      tag_66\n      swap1\n      tag_60\n      jump\t// in\n    tag_66:\n      dup1\n      iszero\n      tag_67\n      jumpi\n      dup1\n      0x1f\n      lt\n      tag_68\n      jumpi\n      0x0100\n      dup1\n      dup4\n      sload\n      div\n      mul\n      dup4\n      mstore\n      swap2\n      0x20\n      add\n      swap2\n      jump(tag_67)\n    tag_68:\n      dup3\n      add\n      swap2\n      swap1\n      0x00\n      mstore\n      keccak256(0x00, 0x20)\n      swap1\n    tag_69:\n      dup2\n      sload\n      dup2\n      mstore\n      swap1\n      0x01\n      add\n      swap1\n      0x20\n      add\n      dup1\n      dup4\n      gt\n      tag_69\n      jumpi\n      dup3\n      swap1\n      sub\n      0x1f\n      and\n      dup3\n      add\n      swap2\n    tag_67:\n      pop\n      pop\n      pop\n      pop\n      pop\n      dup2\n      jump\t// out\n        /* \"contracts/dataTypes.sol\":468:504  uint public minUint = type(uint).min */\n    tag_54:\n      sload(0x09)\n      dup2\n      jump\t// out\n        /* \"contracts/dataTypes.sol\":313:377  address public Addr = 0x5B38Da6a701c568545dCfcB03FcB875f56beddC4 */\n    tag_57:\n      0x06\n      0x00\n      swap1\n      sload\n      swap1\n      0x0100\n      exp\n      swap1\n      div\n      0xffffffffffffffffffffffffffffffffffffffff\n      and\n      dup2\n      jump\t// out\n        /* \"#utility.yul\":7:84   */\n    tag_70:\n        /* \"#utility.yul\":44:51   */\n      0x00\n        /* \"#utility.yul\":73:78   */\n      dup2\n        /* \"#utility.yul\":62:78   */\n      swap1\n      pop\n        /* \"#utility.yul\":7:84   */\n      swap2\n      swap1\n      pop\n      jump\t// out\n        /* \"#utility.yul\":90:208   */\n    tag_71:\n        /* \"#utility.yul\":177:201   */\n      tag_93\n        /* \"#utility.yul\":195:200   */\n      dup2\n        /* \"#utility.yul\":177:201   */\n      tag_70\n      jump\t// in\n    tag_93:\n        /* \"#utility.yul\":172:175   */\n      dup3\n        /* \"#utility.yul\":165:202   */\n      mstore\n        /* \"#utility.yul\":90:208   */\n      pop\n      pop\n      jump\t// out\n        /* \"#utility.yul\":214:436   */\n    tag_19:\n        /* \"#utility.yul\":307:311   */\n      0x00\n        /* \"#utility.yul\":345:347   */\n      0x20\n        /* \"#utility.yul\":334:343   */\n      dup3\n        /* \"#utility.yul\":330:348   */\n      add\n        /* \"#utility.yul\":322:348   */\n      swap1\n      pop\n        /* \"#utility.yul\":358:429   */\n      tag_95\n        /* \"#utility.yul\":426:427   */\n      0x00\n        /* \"#utility.yul\":415:424   */\n      dup4\n        /* \"#utility.yul\":411:428   */\n      add\n        /* \"#utility.yul\":402:408   */\n      dup5\n        /* \"#utility.yul\":358:429   */\n      tag_71\n      jump\t// in\n    tag_95:\n        /* \"#utility.yul\":214:436   */\n      swap3\n      swap2\n      pop\n      pop\n      jump\t// out\n        /* \"#utility.yul\":442:541   */\n    tag_72:\n        /* \"#utility.yul\":494:500   */\n      0x00\n        /* \"#utility.yul\":528:533   */\n      dup2\n        /* \"#utility.yul\":522:534   */\n      mload\n        /* \"#utility.yul\":512:534   */\n      swap1\n      pop\n        /* \"#utility.yul\":442:541   */\n      swap2\n      swap1\n      pop\n      jump\t// out\n        /* \"#utility.yul\":547:716   */\n    tag_73:\n        /* \"#utility.yul\":631:642   */\n      0x00\n        /* \"#utility.yul\":665:671   */\n      dup3\n        /* \"#utility.yul\":660:663   */\n      dup3\n        /* \"#utility.yul\":653:672   */\n      mstore\n        /* \"#utility.yul\":705:709   */\n      0x20\n        /* \"#utility.yul\":700:703   */\n      dup3\n        /* \"#utility.yul\":696:710   */\n      add\n        /* \"#utility.yul\":681:710   */\n      swap1\n      pop\n        /* \"#utility.yul\":547:716   */\n      swap3\n      swap2\n      pop\n      pop\n      jump\t// out\n        /* \"#utility.yul\":722:861   */\n    tag_74:\n        /* \"#utility.yul\":811:817   */\n      dup3\n        /* \"#utility.yul\":806:809   */\n      dup2\n        /* \"#utility.yul\":801:804   */\n      dup4\n        /* \"#utility.yul\":795:818   */\n      mcopy\n        /* \"#utility.yul\":852:853   */\n      0x00\n        /* \"#utility.yul\":843:849   */\n      dup4\n        /* \"#utility.yul\":838:841   */\n      dup4\n        /* \"#utility.yul\":834:850   */\n      add\n        /* \"#utility.yul\":827:854   */\n      mstore\n        /* \"#utility.yul\":722:861   */\n      pop\n      pop\n      pop\n      jump\t// out\n        /* \"#utility.yul\":867:969   */\n    tag_75:\n        /* \"#utility.yul\":908:914   */\n      0x00\n        /* \"#utility.yul\":959:961   */\n      0x1f\n        /* \"#utility.yul\":955:962   */\n      not\n        /* \"#utility.yul\":950:952   */\n      0x1f\n        /* \"#utility.yul\":943:948   */\n      dup4\n        /* \"#utility.yul\":939:953   */\n      add\n        /* \"#utility.yul\":935:963   */\n      and\n        /* \"#utility.yul\":925:963   */\n      swap1\n      pop\n        /* \"#utility.yul\":867:969   */\n      swap2\n      swap1\n      pop\n      jump\t// out\n        /* \"#utility.yul\":975:1352   */\n    tag_76:\n        /* \"#utility.yul\":1063:1066   */\n      0x00\n        /* \"#utility.yul\":1091:1130   */\n      tag_101\n        /* \"#utility.yul\":1124:1129   */\n      dup3\n        /* \"#utility.yul\":1091:1130   */\n      tag_72\n      jump\t// in\n    tag_101:\n        /* \"#utility.yul\":1146:1217   */\n      tag_102\n        /* \"#utility.yul\":1210:1216   */\n      dup2\n        /* \"#utility.yul\":1205:1208   */\n      dup6\n        /* \"#utility.yul\":1146:1217   */\n      tag_73\n      jump\t// in\n    tag_102:\n        /* \"#utility.yul\":1139:1217   */\n      swap4\n      pop\n        /* \"#utility.yul\":1226:1291   */\n      tag_103\n        /* \"#utility.yul\":1284:1290   */\n      dup2\n        /* \"#utility.yul\":1279:1282   */\n      dup6\n        /* \"#utility.yul\":1272:1276   */\n      0x20\n        /* \"#utility.yul\":1265:1270   */\n      dup7\n        /* \"#utility.yul\":1261:1277   */\n      add\n        /* \"#utility.yul\":1226:1291   */\n      tag_74\n      jump\t// in\n    tag_103:\n        /* \"#utility.yul\":1316:1345   */\n      tag_104\n        /* \"#utility.yul\":1338:1344   */\n      dup2\n        /* \"#utility.yul\":1316:1345   */\n      tag_75\n      jump\t// in\n    tag_104:\n        /* \"#utility.yul\":1311:1314   */\n      dup5\n        /* \"#utility.yul\":1307:1346   */\n      add\n        /* \"#utility.yul\":1300:1346   */\n      swap2\n      pop\n        /* \"#utility.yul\":1067:1352   */\n      pop\n        /* \"#utility.yul\":975:1352   */\n      swap3\n      swap2\n      pop\n      pop\n      jump\t// out\n        /* \"#utility.yul\":1358:1671   */\n    tag_26:\n        /* \"#utility.yul\":1471:1475   */\n      0x00\n        /* \"#utility.yul\":1509:1511   */\n      0x20\n        /* \"#utility.yul\":1498:1507   */\n      dup3\n        /* \"#utility.yul\":1494:1512   */\n      add\n        /* \"#utility.yul\":1486:1512   */\n      swap1\n      pop\n        /* \"#utility.yul\":1558:1567   */\n      dup2\n        /* \"#utility.yul\":1552:1556   */\n      dup2\n        /* \"#utility.yul\":1548:1568   */\n      sub\n        /* \"#utility.yul\":1544:1545   */\n      0x00\n        /* \"#utility.yul\":1533:1542   */\n      dup4\n        /* \"#utility.yul\":1529:1546   */\n      add\n        /* \"#utility.yul\":1522:1569   */\n      mstore\n        /* \"#utility.yul\":1586:1664   */\n      tag_106\n        /* \"#utility.yul\":1659:1663   */\n      dup2\n        /* \"#utility.yul\":1650:1656   */\n      dup5\n        /* \"#utility.yul\":1586:1664   */\n      tag_76\n      jump\t// in\n    tag_106:\n        /* \"#utility.yul\":1578:1664   */\n      swap1\n      pop\n        /* \"#utility.yul\":1358:1671   */\n      swap3\n      swap2\n      pop\n      pop\n      jump\t// out\n        /* \"#utility.yul\":1677:1753   */\n    tag_77:\n        /* \"#utility.yul\":1713:1720   */\n      0x00\n        /* \"#utility.yul\":1742:1747   */\n      dup2\n        /* \"#utility.yul\":1731:1747   */\n      swap1\n      pop\n        /* \"#utility.yul\":1677:1753   */\n      swap2\n      swap1\n      pop\n      jump\t// out\n        /* \"#utility.yul\":1759:1874   */\n    tag_78:\n        /* \"#utility.yul\":1844:1867   */\n      tag_109\n        /* \"#utility.yul\":1861:1866   */\n      dup2\n        /* \"#utility.yul\":1844:1867   */\n      tag_77\n      jump\t// in\n    tag_109:\n        /* \"#utility.yul\":1839:1842   */\n      dup3\n        /* \"#utility.yul\":1832:1868   */\n      mstore\n        /* \"#utility.yul\":1759:1874   */\n      pop\n      pop\n      jump\t// out\n        /* \"#utility.yul\":1880:2098   */\n    tag_30:\n        /* \"#utility.yul\":1971:1975   */\n      0x00\n        /* \"#utility.yul\":2009:2011   */\n      0x20\n        /* \"#utility.yul\":1998:2007   */\n      dup3\n        /* \"#utility.yul\":1994:2012   */\n      add\n        /* \"#utility.yul\":1986:2012   */\n      swap1\n      pop\n        /* \"#utility.yul\":2022:2091   */\n      tag_111\n        /* \"#utility.yul\":2088:2089   */\n      0x00\n        /* \"#utility.yul\":2077:2086   */\n      dup4\n        /* \"#utility.yul\":2073:2090   */\n      add\n        /* \"#utility.yul\":2064:2070   */\n      dup5\n        /* \"#utility.yul\":2022:2091   */\n      tag_78\n      jump\t// in\n    tag_111:\n        /* \"#utility.yul\":1880:2098   */\n      swap3\n      swap2\n      pop\n      pop\n      jump\t// out\n        /* \"#utility.yul\":2104:2230   */\n    tag_79:\n        /* \"#utility.yul\":2141:2148   */\n      0x00\n        /* \"#utility.yul\":2181:2223   */\n      0xffffffffffffffffffffffffffffffffffffffff\n        /* \"#utility.yul\":2174:2179   */\n      dup3\n        /* \"#utility.yul\":2170:2224   */\n      and\n        /* \"#utility.yul\":2159:2224   */\n      swap1\n      pop\n        /* \"#utility.yul\":2104:2230   */\n      swap2\n      swap1\n      pop\n      jump\t// out\n        /* \"#utility.yul\":2236:2332   */\n    tag_80:\n        /* \"#utility.yul\":2273:2280   */\n      0x00\n        /* \"#utility.yul\":2302:2326   */\n      tag_114\n        /* \"#utility.yul\":2320:2325   */\n      dup3\n        /* \"#utility.yul\":2302:2326   */\n      tag_79\n      jump\t// in\n    tag_114:\n        /* \"#utility.yul\":2291:2326   */\n      swap1\n      pop\n        /* \"#utility.yul\":2236:2332   */\n      swap2\n      swap1\n      pop\n      jump\t// out\n        /* \"#utility.yul\":2338:2456   */\n    tag_81:\n        /* \"#utility.yul\":2425:2449   */\n      tag_116\n        /* \"#utility.yul\":2443:2448   */\n      dup2\n        /* \"#utility.yul\":2425:2449   */\n      tag_80\n      jump\t// in\n    tag_116:\n        /* \"#utility.yul\":2420:2423   */\n      dup3\n        /* \"#utility.yul\":2413:2450   */\n      mstore\n        /* \"#utility.yul\":2338:2456   */\n      pop\n      pop\n      jump\t// out\n        /* \"#utility.yul\":2462:2684   */\n    tag_34:\n        /* \"#utility.yul\":2555:2559   */\n      0x00\n        /* \"#utility.yul\":2593:2595   */\n      0x20\n        /* \"#utility.yul\":2582:2591   */\n      dup3\n        /* \"#utility.yul\":2578:2596   */\n      add\n        /* \"#utility.yul\":2570:2596   */\n      swap1\n      pop\n        /* \"#utility.yul\":2606:2677   */\n      tag_118\n        /* \"#utility.yul\":2674:2675   */\n      0x00\n        /* \"#utility.yul\":2663:2672   */\n      dup4\n        /* \"#utility.yul\":2659:2676   */\n      add\n        /* \"#utility.yul\":2650:2656   */\n      dup5\n        /* \"#utility.yul\":2606:2677   */\n      tag_81\n      jump\t// in\n    tag_118:\n        /* \"#utility.yul\":2462:2684   */\n      swap3\n      swap2\n      pop\n      pop\n      jump\t// out\n        /* \"#utility.yul\":2690:2839   */\n    tag_82:\n        /* \"#utility.yul\":2726:2733   */\n      0x00\n        /* \"#utility.yul\":2766:2832   */\n      0xff00000000000000000000000000000000000000000000000000000000000000\n        /* \"#utility.yul\":2759:2764   */\n      dup3\n        /* \"#utility.yul\":2755:2833   */\n      and\n        /* \"#utility.yul\":2744:2833   */\n      swap1\n      pop\n        /* \"#utility.yul\":2690:2839   */\n      swap2\n      swap1\n      pop\n      jump\t// out\n        /* \"#utility.yul\":2845:2960   */\n    tag_83:\n        /* \"#utility.yul\":2930:2953   */\n      tag_121\n        /* \"#utility.yul\":2947:2952   */\n      dup2\n        /* \"#utility.yul\":2930:2953   */\n      tag_82\n      jump\t// in\n    tag_121:\n        /* \"#utility.yul\":2925:2928   */\n      dup3\n        /* \"#utility.yul\":2918:2954   */\n      mstore\n        /* \"#utility.yul\":2845:2960   */\n      pop\n      pop\n      jump\t// out\n        /* \"#utility.yul\":2966:3184   */\n    tag_38:\n        /* \"#utility.yul\":3057:3061   */\n      0x00\n        /* \"#utility.yul\":3095:3097   */\n      0x20\n        /* \"#utility.yul\":3084:3093   */\n      dup3\n        /* \"#utility.yul\":3080:3098   */\n      add\n        /* \"#utility.yul\":3072:3098   */\n      swap1\n      pop\n        /* \"#utility.yul\":3108:3177   */\n      tag_123\n        /* \"#utility.yul\":3174:3175   */\n      0x00\n        /* \"#utility.yul\":3163:3172   */\n      dup4\n        /* \"#utility.yul\":3159:3176   */\n      add\n        /* \"#utility.yul\":3150:3156   */\n      dup5\n        /* \"#utility.yul\":3108:3177   */\n      tag_83\n      jump\t// in\n    tag_123:\n        /* \"#utility.yul\":2966:3184   */\n      swap3\n      swap2\n      pop\n      pop\n      jump\t// out\n        /* \"#utility.yul\":3190:3280   */\n    tag_84:\n        /* \"#utility.yul\":3224:3231   */\n      0x00\n        /* \"#utility.yul\":3267:3272   */\n      dup2\n        /* \"#utility.yul\":3260:3273   */\n      iszero\n        /* \"#utility.yul\":3253:3274   */\n      iszero\n        /* \"#utility.yul\":3242:3274   */\n      swap1\n      pop\n        /* \"#utility.yul\":3190:3280   */\n      swap2\n      swap1\n      pop\n      jump\t// out\n        /* \"#utility.yul\":3286:3395   */\n    tag_85:\n        /* \"#utility.yul\":3367:3388   */\n      tag_126\n        /* \"#utility.yul\":3382:3387   */\n      dup2\n        /* \"#utility.yul\":3367:3388   */\n      tag_84\n      jump\t// in\n    tag_126:\n        /* \"#utility.yul\":3362:3365   */\n      dup3\n        /* \"#utility.yul\":3355:3389   */\n      mstore\n        /* \"#utility.yul\":3286:3395   */\n      pop\n      pop\n      jump\t// out\n        /* \"#utility.yul\":3401:3611   */\n    tag_48:\n        /* \"#utility.yul\":3488:3492   */\n      0x00\n        /* \"#utility.yul\":3526:3528   */\n      0x20\n        /* \"#utility.yul\":3515:3524   */\n      dup3\n        /* \"#utility.yul\":3511:3529   */\n      add\n        /* \"#utility.yul\":3503:3529   */\n      swap1\n      pop\n        /* \"#utility.yul\":3539:3604   */\n      tag_128\n        /* \"#utility.yul\":3601:3602   */\n      0x00\n        /* \"#utility.yul\":3590:3599   */\n      dup4\n        /* \"#utility.yul\":3586:3603   */\n      add\n        /* \"#utility.yul\":3577:3583   */\n      dup5\n        /* \"#utility.yul\":3539:3604   */\n      tag_85\n      jump\t// in\n    tag_128:\n        /* \"#utility.yul\":3401:3611   */\n      swap3\n      swap2\n      pop\n      pop\n      jump\t// out\n        /* \"#utility.yul\":3617:3715   */\n    tag_86:\n        /* \"#utility.yul\":3668:3674   */\n      0x00\n        /* \"#utility.yul\":3702:3707   */\n      dup2\n        /* \"#utility.yul\":3696:3708   */\n      mload\n        /* \"#utility.yul\":3686:3708   */\n      swap1\n      pop\n        /* \"#utility.yul\":3617:3715   */\n      swap2\n      swap1\n      pop\n      jump\t// out\n        /* \"#utility.yul\":3721:3889   */\n    tag_87:\n        /* \"#utility.yul\":3804:3815   */\n      0x00\n        /* \"#utility.yul\":3838:3844   */\n      dup3\n        /* \"#utility.yul\":3833:3836   */\n      dup3\n        /* \"#utility.yul\":3826:3845   */\n      mstore\n        /* \"#utility.yul\":3878:3882   */\n      0x20\n        /* \"#utility.yul\":3873:3876   */\n      dup3\n        /* \"#utility.yul\":3869:3883   */\n      add\n        /* \"#utility.yul\":3854:3883   */\n      swap1\n      pop\n        /* \"#utility.yul\":3721:3889   */\n      swap3\n      swap2\n      pop\n      pop\n      jump\t// out\n        /* \"#utility.yul\":3895:4268   */\n    tag_88:\n        /* \"#utility.yul\":3981:3984   */\n      0x00\n        /* \"#utility.yul\":4009:4047   */\n      tag_132\n        /* \"#utility.yul\":4041:4046   */\n      dup3\n        /* \"#utility.yul\":4009:4047   */\n      tag_86\n      jump\t// in\n    tag_132:\n        /* \"#utility.yul\":4063:4133   */\n      tag_133\n        /* \"#utility.yul\":4126:4132   */\n      dup2\n        /* \"#utility.yul\":4121:4124   */\n      dup6\n        /* \"#utility.yul\":4063:4133   */\n      tag_87\n      jump\t// in\n    tag_133:\n        /* \"#utility.yul\":4056:4133   */\n      swap4\n      pop\n        /* \"#utility.yul\":4142:4207   */\n      tag_134\n        /* \"#utility.yul\":4200:4206   */\n      dup2\n        /* \"#utility.yul\":4195:4198   */\n      dup6\n        /* \"#utility.yul\":4188:4192   */\n      0x20\n        /* \"#utility.yul\":4181:4186   */\n      dup7\n        /* \"#utility.yul\":4177:4193   */\n      add\n        /* \"#utility.yul\":4142:4207   */\n      tag_74\n      jump\t// in\n    tag_134:\n        /* \"#utility.yul\":4232:4261   */\n      tag_135\n        /* \"#utility.yul\":4254:4260   */\n      dup2\n        /* \"#utility.yul\":4232:4261   */\n      tag_75\n      jump\t// in\n    tag_135:\n        /* \"#utility.yul\":4227:4230   */\n      dup5\n        /* \"#utility.yul\":4223:4262   */\n      add\n        /* \"#utility.yul\":4216:4262   */\n      swap2\n      pop\n        /* \"#utility.yul\":3985:4268   */\n      pop\n        /* \"#utility.yul\":3895:4268   */\n      swap3\n      swap2\n      pop\n      pop\n      jump\t// out\n        /* \"#utility.yul\":4274:4583   */\n    tag_52:\n        /* \"#utility.yul\":4385:4389   */\n      0x00\n        /* \"#utility.yul\":4423:4425   */\n      0x20\n        /* \"#utility.yul\":4412:4421   */\n      dup3\n        /* \"#utility.yul\":4408:4426   */\n      add\n        /* \"#utility.yul\":4400:4426   */\n      swap1\n      pop\n        /* \"#utility.yul\":4472:4481   */\n      dup2\n        /* \"#utility.yul\":4466:4470   */\n      dup2\n        /* \"#utility.yul\":4462:4482   */\n      sub\n        /* \"#utility.yul\":4458:4459   */\n      0x00\n        /* \"#utility.yul\":4447:4456   */\n      dup4\n        /* \"#utility.yul\":4443:4460   */\n      add\n        /* \"#utility.yul\":4436:4483   */\n      mstore\n        /* \"#utility.yul\":4500:4576   */\n      tag_137\n        /* \"#utility.yul\":4571:4575   */\n      dup2\n        /* \"#utility.yul\":4562:4568   */\n      dup5\n        /* \"#utility.yul\":4500:4576   */\n      tag_88\n      jump\t// in\n    tag_137:\n        /* \"#utility.yul\":4492:4576   */\n      swap1\n      pop\n        /* \"#utility.yul\":4274:4583   */\n      swap3\n      swap2\n      pop\n      pop\n      jump\t// out\n        /* \"#utility.yul\":4589:4769   */\n    tag_89:\n        /* \"#utility.yul\":4637:4714   */\n      0x4e487b7100000000000000000000000000000000000000000000000000000000\n        /* \"#utility.yul\":4634:4635   */\n      0x00\n        /* \"#utility.yul\":4627:4715   */\n      mstore\n        /* \"#utility.yul\":4734:4738   */\n      0x22\n        /* \"#utility.yul\":4731:4732   */\n      0x04\n        /* \"#utility.yul\":4724:4739   */\n      mstore\n        /* \"#utility.yul\":4758:4762   */\n      0x24\n        /* \"#utility.yul\":4755:4756   */\n      0x00\n        /* \"#utility.yul\":4748:4763   */\n      revert\n        /* \"#utility.yul\":4775:5095   */\n    tag_60:\n        /* \"#utility.yul\":4819:4825   */\n      0x00\n        /* \"#utility.yul\":4856:4857   */\n      0x02\n        /* \"#utility.yul\":4850:4854   */\n      dup3\n        /* \"#utility.yul\":4846:4858   */\n      div\n        /* \"#utility.yul\":4836:4858   */\n      swap1\n      pop\n        /* \"#utility.yul\":4903:4904   */\n      0x01\n        /* \"#utility.yul\":4897:4901   */\n      dup3\n        /* \"#utility.yul\":4893:4905   */\n      and\n        /* \"#utility.yul\":4924:4942   */\n      dup1\n        /* \"#utility.yul\":4914:4995   */\n      tag_140\n      jumpi\n        /* \"#utility.yul\":4980:4984   */\n      0x7f\n        /* \"#utility.yul\":4972:4978   */\n      dup3\n        /* \"#utility.yul\":4968:4985   */\n      and\n        /* \"#utility.yul\":4958:4985   */\n      swap2\n      pop\n        /* \"#utility.yul\":4914:4995   */\n    tag_140:\n        /* \"#utility.yul\":5042:5044   */\n      0x20\n        /* \"#utility.yul\":5034:5040   */\n      dup3\n        /* \"#utility.yul\":5031:5045   */\n      lt\n        /* \"#utility.yul\":5011:5029   */\n      dup2\n        /* \"#utility.yul\":5008:5046   */\n      sub\n        /* \"#utility.yul\":5005:5089   */\n      tag_141\n      jumpi\n        /* \"#utility.yul\":5061:5079   */\n      tag_142\n      tag_89\n      jump\t// in\n    tag_142:\n        /* \"#utility.yul\":5005:5089   */\n    tag_141:\n        /* \"#utility.yul\":4826:5095   */\n      pop\n        /* \"#utility.yul\":4775:5095   */\n      swap2\n      swap1\n      pop\n      jump\t// out\n\n    auxdata: 0xa2646970667358221220586c88b3eb1392661f8d2d2a9047f4e822f9933a24e2123e660d859a2aa617f164736f6c634300081a0033\n}\n",
				"bytecode": {
					"linkReferences": {},
					"object": "6080604052735b38da6a701c568545dcfcb03fcb875f56beddc460065f6101000a81548173ffffffffffffffffffffffffffffffffffffffff021916908373ffffffffffffffffffffffffffffffffffffffff1602179055507f80000000000000000000000000000000000000000000000000000000000000006007557f7fffffffffffffffffffffffffffffffffffffffffffffffffffffffffffffff6008555f6009557fffffffffffffffffffffffffffffffffffffffffffffffffffffffffffffffff600a5534801560d2575f80fd5b5061069d806100e05f395ff3fe608060405234801561000f575f80fd5b50600436106100b2575f3560e01c80637a4c25711161006f5780637a4c25711461016a5780637e4e14cc14610188578063d668f5b5146101a6578063e96b824a146101c4578063eacc248b146101e2578063eb3d5cdb14610200576100b2565b80631570c2cb146100b657806316a0c5b5146100d45780634c00fd84146100f25780635abe622b146101105780635c1016931461012e57806364da813a1461014c575b5f80fd5b6100be61021e565b6040516100cb91906103e0565b60405180910390f35b6100dc610223565b6040516100e991906103e0565b60405180910390f35b6100fa610229565b6040516101079190610469565b60405180910390f35b6101186102b5565b60405161012591906104a1565b60405180910390f35b6101366102bb565b60405161014391906104f9565b60405180910390f35b6101546102e1565b604051610161919061054c565b60405180910390f35b6101726102f3565b60405161017f91906104a1565b60405180910390f35b6101906102f9565b60405161019d91906104a1565b60405180910390f35b6101ae6102ff565b6040516101bb919061057f565b60405180910390f35b6101cc610311565b6040516101d991906105ea565b60405180910390f35b6101ea61039d565b6040516101f791906103e0565b60405180910390f35b6102086103a3565b60405161021591906104f9565b60405180910390f35b5f5481565b600a5481565b6002805461023690610637565b80601f016020809104026020016040519081016040528092919081815260200182805461026290610637565b80156102ad5780601f10610284576101008083540402835291602001916102ad565b820191905f5260205f20905b81548152906001019060200180831161029057829003601f168201915b505050505081565b60015481565b600560019054906101000a900473ffffffffffffffffffffffffffffffffffffffff1681565b60055f9054906101000a900460f81b81565b60085481565b60075481565b60035f9054906101000a900460ff1681565b6004805461031e90610637565b80601f016020809104026020016040519081016040528092919081815260200182805461034a90610637565b80156103955780601f1061036c57610100808354040283529160200191610395565b820191905f5260205f20905b81548152906001019060200180831161037857829003601f168201915b505050505081565b60095481565b60065f9054906101000a900473ffffffffffffffffffffffffffffffffffffffff1681565b5f819050919050565b6103da816103c8565b82525050565b5f6020820190506103f35f8301846103d1565b92915050565b5f81519050919050565b5f82825260208201905092915050565b8281835e5f83830152505050565b5f601f19601f8301169050919050565b5f61043b826103f9565b6104458185610403565b9350610455818560208601610413565b61045e81610421565b840191505092915050565b5f6020820190508181035f8301526104818184610431565b905092915050565b5f819050919050565b61049b81610489565b82525050565b5f6020820190506104b45f830184610492565b92915050565b5f73ffffffffffffffffffffffffffffffffffffffff82169050919050565b5f6104e3826104ba565b9050919050565b6104f3816104d9565b82525050565b5f60208201905061050c5f8301846104ea565b92915050565b5f7fff0000000000000000000000000000000000000000000000000000000000000082169050919050565b61054681610512565b82525050565b5f60208201905061055f5f83018461053d565b92915050565b5f8115159050919050565b61057981610565565b82525050565b5f6020820190506105925f830184610570565b92915050565b5f81519050919050565b5f82825260208201905092915050565b5f6105bc82610598565b6105c681856105a2565b93506105d6818560208601610413565b6105df81610421565b840191505092915050565b5f6020820190508181035f83015261060281846105b2565b905092915050565b7f4e487b71000000000000000000000000000000000000000000000000000000005f52602260045260245ffd5b5f600282049050600182168061064e57607f821691505b6020821081036106615761066061060a565b5b5091905056fea2646970667358221220586c88b3eb1392661f8d2d2a9047f4e822f9933a24e2123e660d859a2aa617f164736f6c634300081a0033",
					"opcodes": "PUSH1 0x80 PUSH1 0x40 MSTORE PUSH20 0x5B38DA6A701C568545DCFCB03FCB875F56BEDDC4 PUSH1 0x6 PUSH0 PUSH2 0x100 EXP DUP2 SLOAD DUP2 PUSH20 0xFFFFFFFFFFFFFFFFFFFFFFFFFFFFFFFFFFFFFFFF MUL NOT AND SWAP1 DUP4 PUSH20 0xFFFFFFFFFFFFFFFFFFFFFFFFFFFFFFFFFFFFFFFF AND MUL OR SWAP1 SSTORE POP PUSH32 0x8000000000000000000000000000000000000000000000000000000000000000 PUSH1 0x7 SSTORE PUSH32 0x7FFFFFFFFFFFFFFFFFFFFFFFFFFFFFFFFFFFFFFFFFFFFFFFFFFFFFFFFFFFFFFF PUSH1 0x8 SSTORE PUSH0 PUSH1 0x9 SSTORE PUSH32 0xFFFFFFFFFFFFFFFFFFFFFFFFFFFFFFFFFFFFFFFFFFFFFFFFFFFFFFFFFFFFFFFF PUSH1 0xA SSTORE CALLVALUE DUP1 ISZERO PUSH1 0xD2 JUMPI PUSH0 DUP1 REVERT JUMPDEST POP PUSH2 0x69D DUP1 PUSH2 0xE0 PUSH0 CODECOPY PUSH0 RETURN INVALID PUSH1 0x80 PUSH1 0x40 MSTORE CALLVALUE DUP1 ISZERO PUSH2 0xF JUMPI PUSH0 DUP1 REVERT JUMPDEST POP PUSH1 0x4 CALLDATASIZE LT PUSH2 0xB2 JUMPI PUSH0 CALLDATALOAD PUSH1 0xE0 SHR DUP1 PUSH4 0x7A4C2571 GT PUSH2 0x6F JUMPI DUP1 PUSH4 0x7A4C2571 EQ PUSH2 0x16A JUMPI DUP1 PUSH4 0x7E4E14CC EQ PUSH2 0x188 JUMPI DUP1 PUSH4 0xD668F5B5 EQ PUSH2 0x1A6 JUMPI DUP1 PUSH4 0xE96B824A EQ PUSH2 0x1C4 JUMPI DUP1 PUSH4 0xEACC248B EQ PUSH2 0x1E2 JUMPI DUP1 PUSH4 0xEB3D5CDB EQ PUSH2 0x200 JUMPI PUSH2 0xB2 JUMP JUMPDEST DUP1 PUSH4 0x1570C2CB EQ PUSH2 0xB6 JUMPI DUP1 PUSH4 0x16A0C5B5 EQ PUSH2 0xD4 JUMPI DUP1 PUSH4 0x4C00FD84 EQ PUSH2 0xF2 JUMPI DUP1 PUSH4 0x5ABE622B EQ PUSH2 0x110 JUMPI DUP1 PUSH4 0x5C101693 EQ PUSH2 0x12E JUMPI DUP1 PUSH4 0x64DA813A EQ PUSH2 0x14C JUMPI JUMPDEST PUSH0 DUP1 REVERT JUMPDEST PUSH2 0xBE PUSH2 0x21E JUMP JUMPDEST PUSH1 0x40 MLOAD PUSH2 0xCB SWAP2 SWAP1 PUSH2 0x3E0 JUMP JUMPDEST PUSH1 0x40 MLOAD DUP1 SWAP2 SUB SWAP1 RETURN JUMPDEST PUSH2 0xDC PUSH2 0x223 JUMP JUMPDEST PUSH1 0x40 MLOAD PUSH2 0xE9 SWAP2 SWAP1 PUSH2 0x3E0 JUMP JUMPDEST PUSH1 0x40 MLOAD DUP1 SWAP2 SUB SWAP1 RETURN JUMPDEST PUSH2 0xFA PUSH2 0x229 JUMP JUMPDEST PUSH1 0x40 MLOAD PUSH2 0x107 SWAP2 SWAP1 PUSH2 0x469 JUMP JUMPDEST PUSH1 0x40 MLOAD DUP1 SWAP2 SUB SWAP1 RETURN JUMPDEST PUSH2 0x118 PUSH2 0x2B5 JUMP JUMPDEST PUSH1 0x40 MLOAD PUSH2 0x125 SWAP2 SWAP1 PUSH2 0x4A1 JUMP JUMPDEST PUSH1 0x40 MLOAD DUP1 SWAP2 SUB SWAP1 RETURN JUMPDEST PUSH2 0x136 PUSH2 0x2BB JUMP JUMPDEST PUSH1 0x40 MLOAD PUSH2 0x143 SWAP2 SWAP1 PUSH2 0x4F9 JUMP JUMPDEST PUSH1 0x40 MLOAD DUP1 SWAP2 SUB SWAP1 RETURN JUMPDEST PUSH2 0x154 PUSH2 0x2E1 JUMP JUMPDEST PUSH1 0x40 MLOAD PUSH2 0x161 SWAP2 SWAP1 PUSH2 0x54C JUMP JUMPDEST PUSH1 0x40 MLOAD DUP1 SWAP2 SUB SWAP1 RETURN JUMPDEST PUSH2 0x172 PUSH2 0x2F3 JUMP JUMPDEST PUSH1 0x40 MLOAD PUSH2 0x17F SWAP2 SWAP1 PUSH2 0x4A1 JUMP JUMPDEST PUSH1 0x40 MLOAD DUP1 SWAP2 SUB SWAP1 RETURN JUMPDEST PUSH2 0x190 PUSH2 0x2F9 JUMP JUMPDEST PUSH1 0x40 MLOAD PUSH2 0x19D SWAP2 SWAP1 PUSH2 0x4A1 JUMP JUMPDEST PUSH1 0x40 MLOAD DUP1 SWAP2 SUB SWAP1 RETURN JUMPDEST PUSH2 0x1AE PUSH2 0x2FF JUMP JUMPDEST PUSH1 0x40 MLOAD PUSH2 0x1BB SWAP2 SWAP1 PUSH2 0x57F JUMP JUMPDEST PUSH1 0x40 MLOAD DUP1 SWAP2 SUB SWAP1 RETURN JUMPDEST PUSH2 0x1CC PUSH2 0x311 JUMP JUMPDEST PUSH1 0x40 MLOAD PUSH2 0x1D9 SWAP2 SWAP1 PUSH2 0x5EA JUMP JUMPDEST PUSH1 0x40 MLOAD DUP1 SWAP2 SUB SWAP1 RETURN JUMPDEST PUSH2 0x1EA PUSH2 0x39D JUMP JUMPDEST PUSH1 0x40 MLOAD PUSH2 0x1F7 SWAP2 SWAP1 PUSH2 0x3E0 JUMP JUMPDEST PUSH1 0x40 MLOAD DUP1 SWAP2 SUB SWAP1 RETURN JUMPDEST PUSH2 0x208 PUSH2 0x3A3 JUMP JUMPDEST PUSH1 0x40 MLOAD PUSH2 0x215 SWAP2 SWAP1 PUSH2 0x4F9 JUMP JUMPDEST PUSH1 0x40 MLOAD DUP1 SWAP2 SUB SWAP1 RETURN JUMPDEST PUSH0 SLOAD DUP2 JUMP JUMPDEST PUSH1 0xA SLOAD DUP2 JUMP JUMPDEST PUSH1 0x2 DUP1 SLOAD PUSH2 0x236 SWAP1 PUSH2 0x637 JUMP JUMPDEST DUP1 PUSH1 0x1F ADD PUSH1 0x20 DUP1 SWAP2 DIV MUL PUSH1 0x20 ADD PUSH1 0x40 MLOAD SWAP1 DUP2 ADD PUSH1 0x40 MSTORE DUP1 SWAP3 SWAP2 SWAP1 DUP2 DUP2 MSTORE PUSH1 0x20 ADD DUP3 DUP1 SLOAD PUSH2 0x262 SWAP1 PUSH2 0x637 JUMP JUMPDEST DUP1 ISZERO PUSH2 0x2AD JUMPI DUP1 PUSH1 0x1F LT PUSH2 0x284 JUMPI PUSH2 0x100 DUP1 DUP4 SLOAD DIV MUL DUP4 MSTORE SWAP2 PUSH1 0x20 ADD SWAP2 PUSH2 0x2AD JUMP JUMPDEST DUP3 ADD SWAP2 SWAP1 PUSH0 MSTORE PUSH1 0x20 PUSH0 KECCAK256 SWAP1 JUMPDEST DUP2 SLOAD DUP2 MSTORE SWAP1 PUSH1 0x1 ADD SWAP1 PUSH1 0x20 ADD DUP1 DUP4 GT PUSH2 0x290 JUMPI DUP3 SWAP1 SUB PUSH1 0x1F AND DUP3 ADD SWAP2 JUMPDEST POP POP POP POP POP DUP2 JUMP JUMPDEST PUSH1 0x1 SLOAD DUP2 JUMP JUMPDEST PUSH1 0x5 PUSH1 0x1 SWAP1 SLOAD SWAP1 PUSH2 0x100 EXP SWAP1 DIV PUSH20 0xFFFFFFFFFFFFFFFFFFFFFFFFFFFFFFFFFFFFFFFF AND DUP2 JUMP JUMPDEST PUSH1 0x5 PUSH0 SWAP1 SLOAD SWAP1 PUSH2 0x100 EXP SWAP1 DIV PUSH1 0xF8 SHL DUP2 JUMP JUMPDEST PUSH1 0x8 SLOAD DUP2 JUMP JUMPDEST PUSH1 0x7 SLOAD DUP2 JUMP JUMPDEST PUSH1 0x3 PUSH0 SWAP1 SLOAD SWAP1 PUSH2 0x100 EXP SWAP1 DIV PUSH1 0xFF AND DUP2 JUMP JUMPDEST PUSH1 0x4 DUP1 SLOAD PUSH2 0x31E SWAP1 PUSH2 0x637 JUMP JUMPDEST DUP1 PUSH1 0x1F ADD PUSH1 0x20 DUP1 SWAP2 DIV MUL PUSH1 0x20 ADD PUSH1 0x40 MLOAD SWAP1 DUP2 ADD PUSH1 0x40 MSTORE DUP1 SWAP3 SWAP2 SWAP1 DUP2 DUP2 MSTORE PUSH1 0x20 ADD DUP3 DUP1 SLOAD PUSH2 0x34A SWAP1 PUSH2 0x637 JUMP JUMPDEST DUP1 ISZERO PUSH2 0x395 JUMPI DUP1 PUSH1 0x1F LT PUSH2 0x36C JUMPI PUSH2 0x100 DUP1 DUP4 SLOAD DIV MUL DUP4 MSTORE SWAP2 PUSH1 0x20 ADD SWAP2 PUSH2 0x395 JUMP JUMPDEST DUP3 ADD SWAP2 SWAP1 PUSH0 MSTORE PUSH1 0x20 PUSH0 KECCAK256 SWAP1 JUMPDEST DUP2 SLOAD DUP2 MSTORE SWAP1 PUSH1 0x1 ADD SWAP1 PUSH1 0x20 ADD DUP1 DUP4 GT PUSH2 0x378 JUMPI DUP3 SWAP1 SUB PUSH1 0x1F AND DUP3 ADD SWAP2 JUMPDEST POP POP POP POP POP DUP2 JUMP JUMPDEST PUSH1 0x9 SLOAD DUP2 JUMP JUMPDEST PUSH1 0x6 PUSH0 SWAP1 SLOAD SWAP1 PUSH2 0x100 EXP SWAP1 DIV PUSH20 0xFFFFFFFFFFFFFFFFFFFFFFFFFFFFFFFFFFFFFFFF AND DUP2 JUMP JUMPDEST PUSH0 DUP2 SWAP1 POP SWAP2 SWAP1 POP JUMP JUMPDEST PUSH2 0x3DA DUP2 PUSH2 0x3C8 JUMP JUMPDEST DUP3 MSTORE POP POP JUMP JUMPDEST PUSH0 PUSH1 0x20 DUP3 ADD SWAP1 POP PUSH2 0x3F3 PUSH0 DUP4 ADD DUP5 PUSH2 0x3D1 JUMP JUMPDEST SWAP3 SWAP2 POP POP JUMP JUMPDEST PUSH0 DUP2 MLOAD SWAP1 POP SWAP2 SWAP1 POP JUMP JUMPDEST PUSH0 DUP3 DUP3 MSTORE PUSH1 0x20 DUP3 ADD SWAP1 POP SWAP3 SWAP2 POP POP JUMP JUMPDEST DUP3 DUP2 DUP4 MCOPY PUSH0 DUP4 DUP4 ADD MSTORE POP POP POP JUMP JUMPDEST PUSH0 PUSH1 0x1F NOT PUSH1 0x1F DUP4 ADD AND SWAP1 POP SWAP2 SWAP1 POP JUMP JUMPDEST PUSH0 PUSH2 0x43B DUP3 PUSH2 0x3F9 JUMP JUMPDEST PUSH2 0x445 DUP2 DUP6 PUSH2 0x403 JUMP JUMPDEST SWAP4 POP PUSH2 0x455 DUP2 DUP6 PUSH1 0x20 DUP7 ADD PUSH2 0x413 JUMP JUMPDEST PUSH2 0x45E DUP2 PUSH2 0x421 JUMP JUMPDEST DUP5 ADD SWAP2 POP POP SWAP3 SWAP2 POP POP JUMP JUMPDEST PUSH0 PUSH1 0x20 DUP3 ADD SWAP1 POP DUP2 DUP2 SUB PUSH0 DUP4 ADD MSTORE PUSH2 0x481 DUP2 DUP5 PUSH2 0x431 JUMP JUMPDEST SWAP1 POP SWAP3 SWAP2 POP POP JUMP JUMPDEST PUSH0 DUP2 SWAP1 POP SWAP2 SWAP1 POP JUMP JUMPDEST PUSH2 0x49B DUP2 PUSH2 0x489 JUMP JUMPDEST DUP3 MSTORE POP POP JUMP JUMPDEST PUSH0 PUSH1 0x20 DUP3 ADD SWAP1 POP PUSH2 0x4B4 PUSH0 DUP4 ADD DUP5 PUSH2 0x492 JUMP JUMPDEST SWAP3 SWAP2 POP POP JUMP JUMPDEST PUSH0 PUSH20 0xFFFFFFFFFFFFFFFFFFFFFFFFFFFFFFFFFFFFFFFF DUP3 AND SWAP1 POP SWAP2 SWAP1 POP JUMP JUMPDEST PUSH0 PUSH2 0x4E3 DUP3 PUSH2 0x4BA JUMP JUMPDEST SWAP1 POP SWAP2 SWAP1 POP JUMP JUMPDEST PUSH2 0x4F3 DUP2 PUSH2 0x4D9 JUMP JUMPDEST DUP3 MSTORE POP POP JUMP JUMPDEST PUSH0 PUSH1 0x20 DUP3 ADD SWAP1 POP PUSH2 0x50C PUSH0 DUP4 ADD DUP5 PUSH2 0x4EA JUMP JUMPDEST SWAP3 SWAP2 POP POP JUMP JUMPDEST PUSH0 PUSH32 0xFF00000000000000000000000000000000000000000000000000000000000000 DUP3 AND SWAP1 POP SWAP2 SWAP1 POP JUMP JUMPDEST PUSH2 0x546 DUP2 PUSH2 0x512 JUMP JUMPDEST DUP3 MSTORE POP POP JUMP JUMPDEST PUSH0 PUSH1 0x20 DUP3 ADD SWAP1 POP PUSH2 0x55F PUSH0 DUP4 ADD DUP5 PUSH2 0x53D JUMP JUMPDEST SWAP3 SWAP2 POP POP JUMP JUMPDEST PUSH0 DUP2 ISZERO ISZERO SWAP1 POP SWAP2 SWAP1 POP JUMP JUMPDEST PUSH2 0x579 DUP2 PUSH2 0x565 JUMP JUMPDEST DUP3 MSTORE POP POP JUMP JUMPDEST PUSH0 PUSH1 0x20 DUP3 ADD SWAP1 POP PUSH2 0x592 PUSH0 DUP4 ADD DUP5 PUSH2 0x570 JUMP JUMPDEST SWAP3 SWAP2 POP POP JUMP JUMPDEST PUSH0 DUP2 MLOAD SWAP1 POP SWAP2 SWAP1 POP JUMP JUMPDEST PUSH0 DUP3 DUP3 MSTORE PUSH1 0x20 DUP3 ADD SWAP1 POP SWAP3 SWAP2 POP POP JUMP JUMPDEST PUSH0 PUSH2 0x5BC DUP3 PUSH2 0x598 JUMP JUMPDEST PUSH2 0x5C6 DUP2 DUP6 PUSH2 0x5A2 JUMP JUMPDEST SWAP4 POP PUSH2 0x5D6 DUP2 DUP6 PUSH1 0x20 DUP7 ADD PUSH2 0x413 JUMP JUMPDEST PUSH2 0x5DF DUP2 PUSH2 0x421 JUMP JUMPDEST DUP5 ADD SWAP2 POP POP SWAP3 SWAP2 POP POP JUMP JUMPDEST PUSH0 PUSH1 0x20 DUP3 ADD SWAP1 POP DUP2 DUP2 SUB PUSH0 DUP4 ADD MSTORE PUSH2 0x602 DUP2 DUP5 PUSH2 0x5B2 JUMP JUMPDEST SWAP1 POP SWAP3 SWAP2 POP POP JUMP JUMPDEST PUSH32 0x4E487B7100000000000000000000000000000000000000000000000000000000 PUSH0 MSTORE PUSH1 0x22 PUSH1 0x4 MSTORE PUSH1 0x24 PUSH0 REVERT JUMPDEST PUSH0 PUSH1 0x2 DUP3 DIV SWAP1 POP PUSH1 0x1 DUP3 AND DUP1 PUSH2 0x64E JUMPI PUSH1 0x7F DUP3 AND SWAP2 POP JUMPDEST PUSH1 0x20 DUP3 LT DUP2 SUB PUSH2 0x661 JUMPI PUSH2 0x660 PUSH2 0x60A JUMP JUMPDEST JUMPDEST POP SWAP2 SWAP1 POP JUMP INVALID LOG2 PUSH5 0x6970667358 0x22 SLT KECCAK256 PC PUSH13 0x88B3EB1392661F8D2D2A9047F4 0xE8 0x22 0xF9 SWAP4 GASPRICE 0x24 0xE2 SLT RETURNDATACOPY PUSH7 0xD859A2AA617F1 PUSH5 0x736F6C6343 STOP ADDMOD BYTE STOP CALLER "
				},
				"gasEstimates": {
					"creation": {
						"codeDepositCost": "338600",
						"executionCost": "95961",
						"totalCost": "434561"
					},
					"external": {
						"Addr()": "2618",
						"defaultAddress()": "2648",
						"defaultBool()": "2510",
						"defaultBytes()": "infinite",
						"defaultBytes1()": "2577",
						"defaultInt()": "2492",
						"defaultString()": "infinite",
						"defaultUint()": "2425",
						"maxInt()": "2425",
						"maxUint()": "2448",
						"minInt()": "2447",
						"minUint()": "2513"
					}
				},
				"methodIdentifiers": {
					"Addr()": "eb3d5cdb",
					"defaultAddress()": "5c101693",
					"defaultBool()": "d668f5b5",
					"defaultBytes()": "e96b824a",
					"defaultBytes1()": "64da813a",
					"defaultInt()": "5abe622b",
					"defaultString()": "4c00fd84",
					"defaultUint()": "1570c2cb",
					"maxInt()": "7a4c2571",
					"maxUint()": "16a0c5b5",
					"minInt()": "7e4e14cc",
					"minUint()": "eacc248b"
				}
			},
			"storageLayout": {
				"storage": [
					{
						"astId": 3,
						"contract": "contracts/dataTypes.sol:dataTypes",
						"label": "defaultUint",
						"offset": 0,
						"slot": "0",
						"type": "t_uint256"
					},
					{
						"astId": 5,
						"contract": "contracts/dataTypes.sol:dataTypes",
						"label": "defaultInt",
						"offset": 0,
						"slot": "1",
						"type": "t_int256"
					},
					{
						"astId": 7,
						"contract": "contracts/dataTypes.sol:dataTypes",
						"label": "defaultString",
						"offset": 0,
						"slot": "2",
						"type": "t_string_storage"
					},
					{
						"astId": 9,
						"contract": "contracts/dataTypes.sol:dataTypes",
						"label": "defaultBool",
						"offset": 0,
						"slot": "3",
						"type": "t_bool"
					},
					{
						"astId": 11,
						"contract": "contracts/dataTypes.sol:dataTypes",
						"label": "defaultBytes",
						"offset": 0,
						"slot": "4",
						"type": "t_bytes_storage"
					},
					{
						"astId": 13,
						"contract": "contracts/dataTypes.sol:dataTypes",
						"label": "defaultBytes1",
						"offset": 0,
						"slot": "5",
						"type": "t_bytes1"
					},
					{
						"astId": 15,
						"contract": "contracts/dataTypes.sol:dataTypes",
						"label": "defaultAddress",
						"offset": 1,
						"slot": "5",
						"type": "t_address"
					},
					{
						"astId": 18,
						"contract": "contracts/dataTypes.sol:dataTypes",
						"label": "Addr",
						"offset": 0,
						"slot": "6",
						"type": "t_address"
					},
					{
						"astId": 25,
						"contract": "contracts/dataTypes.sol:dataTypes",
						"label": "minInt",
						"offset": 0,
						"slot": "7",
						"type": "t_int256"
					},
					{
						"astId": 32,
						"contract": "contracts/dataTypes.sol:dataTypes",
						"label": "maxInt",
						"offset": 0,
						"slot": "8",
						"type": "t_int256"
					},
					{
						"astId": 39,
						"contract": "contracts/dataTypes.sol:dataTypes",
						"label": "minUint",
						"offset": 0,
						"slot": "9",
						"type": "t_uint256"
					},
					{
						"astId": 46,
						"contract": "contracts/dataTypes.sol:dataTypes",
						"label": "maxUint",
						"offset": 0,
						"slot": "10",
						"type": "t_uint256"
					}
				],
				"types": {
					"t_address": {
						"encoding": "inplace",
						"label": "address",
						"numberOfBytes": "20"
					},
					"t_bool": {
						"encoding": "inplace",
						"label": "bool",
						"numberOfBytes": "1"
					},
					"t_bytes1": {
						"encoding": "inplace",
						"label": "bytes1",
						"numberOfBytes": "1"
					},
					"t_bytes_storage": {
						"encoding": "bytes",
						"label": "bytes",
						"numberOfBytes": "32"
					},
					"t_int256": {
						"encoding": "inplace",
						"label": "int256",
						"numberOfBytes": "32"
					},
					"t_string_storage": {
						"encoding": "bytes",
						"label": "string",
						"numberOfBytes": "32"
					},
					"t_uint256": {
						"encoding": "inplace",
						"label": "uint256",
						"numberOfBytes": "32"
					}
				}
			},
			"userdoc": {
				"kind": "user",
				"methods": {},
				"version": 1
			}
		}
	}
}