{
	"contracts/LocalVariables.sol": {
		"LocalVariables": {
			"abi": [
				{
					"inputs": [],
					"name": "changeLocalVar",
					"outputs": [
						{
							"internalType": "uint256",
							"name": "",
							"type": "uint256"
						}
					],
					"stateMutability": "nonpayable",
					"type": "function"
				},
				{
					"inputs": [],
					"name": "myNum",
					"outputs": [
						{
							"internalType": "uint256",
							"name": "",
							"type": "uint256"
						}
					],
					"stateMutability": "view",
					"type": "function"
				},
				{
					"inputs": [],
					"name": "setLocalVar",
					"outputs": [
						{
							"internalType": "uint256",
							"name": "",
							"type": "uint256"
						}
					],
					"stateMutability": "pure",
					"type": "function"
				},
				{
					"inputs": [],
					"name": "updateLocalAndStateVar",
					"outputs": [
						{
							"internalType": "address",
							"name": "",
							"type": "address"
						},
						{
							"internalType": "uint256",
							"name": "",
							"type": "uint256"
						}
					],
					"stateMutability": "nonpayable",
					"type": "function"
				}
			],
			"devdoc": {
				"kind": "dev",
				"methods": {},
				"version": 1
			},
			"evm": {
				"assembly": "    /* \"contracts/LocalVariables.sol\":61:749  contract LocalVariables{... */\n  mstore(0x40, 0x80)\n  callvalue\n  dup1\n  iszero\n  tag_1\n  jumpi\n  0x00\n  dup1\n  revert\ntag_1:\n  pop\n  dataSize(sub_0)\n  dup1\n  dataOffset(sub_0)\n  0x00\n  codecopy\n  0x00\n  return\nstop\n\nsub_0: assembly {\n        /* \"contracts/LocalVariables.sol\":61:749  contract LocalVariables{... */\n      mstore(0x40, 0x80)\n      callvalue\n      dup1\n      iszero\n      tag_1\n      jumpi\n      0x00\n      dup1\n      revert\n    tag_1:\n      pop\n      jumpi(tag_2, lt(calldatasize, 0x04))\n      shr(0xe0, calldataload(0x00))\n      dup1\n      0x17969059\n      eq\n      tag_3\n      jumpi\n      dup1\n      0x5b77d6ae\n      eq\n      tag_4\n      jumpi\n      dup1\n      0x9dd91d4e\n      eq\n      tag_5\n      jumpi\n      dup1\n      0xd4da005a\n      eq\n      tag_6\n      jumpi\n    tag_2:\n      0x00\n      dup1\n      revert\n        /* \"contracts/LocalVariables.sol\":119:258  function setLocalVar() public pure returns(uint) {... */\n    tag_3:\n      tag_7\n      tag_8\n      jump\t// in\n    tag_7:\n      mload(0x40)\n      tag_9\n      swap2\n      swap1\n      tag_10\n      jump\t// in\n    tag_9:\n      mload(0x40)\n      dup1\n      swap2\n      sub\n      swap1\n      return\n        /* \"contracts/LocalVariables.sol\":469:746  function updateLocalAndStateVar() public returns(address, uint) {... */\n    tag_4:\n      tag_11\n      tag_12\n      jump\t// in\n    tag_11:\n      mload(0x40)\n      tag_13\n      swap3\n      swap2\n      swap1\n      tag_14\n      jump\t// in\n    tag_13:\n      mload(0x40)\n      dup1\n      swap2\n      sub\n      swap1\n      return\n        /* \"contracts/LocalVariables.sol\":267:457  function changeLocalVar() public returns(uint) {... */\n    tag_5:\n      tag_15\n      tag_16\n      jump\t// in\n    tag_15:\n      mload(0x40)\n      tag_17\n      swap2\n      swap1\n      tag_10\n      jump\t// in\n    tag_17:\n      mload(0x40)\n      dup1\n      swap2\n      sub\n      swap1\n      return\n        /* \"contracts/LocalVariables.sol\":93:110  uint public myNum */\n    tag_6:\n      tag_18\n      tag_19\n      jump\t// in\n    tag_18:\n      mload(0x40)\n      tag_20\n      swap2\n      swap1\n      tag_10\n      jump\t// in\n    tag_20:\n      mload(0x40)\n      dup1\n      swap2\n      sub\n      swap1\n      return\n        /* \"contracts/LocalVariables.sol\":119:258  function setLocalVar() public pure returns(uint) {... */\n    tag_8:\n        /* \"contracts/LocalVariables.sol\":162:166  uint */\n      0x00\n        /* \"contracts/LocalVariables.sol\":205:218  uint localNum */\n      dup1\n        /* \"contracts/LocalVariables.sol\":221:224  100 */\n      0x64\n        /* \"contracts/LocalVariables.sol\":205:224  uint localNum = 100 */\n      swap1\n      pop\n        /* \"contracts/LocalVariables.sol\":242:250  localNum */\n      dup1\n        /* \"contracts/LocalVariables.sol\":235:250  return localNum */\n      swap2\n      pop\n      pop\n        /* \"contracts/LocalVariables.sol\":119:258  function setLocalVar() public pure returns(uint) {... */\n      swap1\n      jump\t// out\n        /* \"contracts/LocalVariables.sol\":469:746  function updateLocalAndStateVar() public returns(address, uint) {... */\n    tag_12:\n        /* \"contracts/LocalVariables.sol\":518:525  address */\n      0x00\n        /* \"contracts/LocalVariables.sol\":527:531  uint */\n      dup1\n        /* \"contracts/LocalVariables.sol\":570:583  uint localNum */\n      0x00\n        /* \"contracts/LocalVariables.sol\":586:589  100 */\n      0x64\n        /* \"contracts/LocalVariables.sol\":570:589  uint localNum = 100 */\n      swap1\n      pop\n        /* \"contracts/LocalVariables.sol\":612:614  45 */\n      0x2d\n        /* \"contracts/LocalVariables.sol\":600:614  localNum += 45 */\n      dup2\n      tag_23\n      swap2\n      swap1\n      tag_24\n      jump\t// in\n    tag_23:\n      swap1\n      pop\n        /* \"contracts/LocalVariables.sol\":633:641  localNum */\n      dup1\n        /* \"contracts/LocalVariables.sol\":625:630  myNum */\n      0x00\n        /* \"contracts/LocalVariables.sol\":625:641  myNum = localNum */\n      dup2\n      swap1\n      sstore\n      pop\n        /* \"contracts/LocalVariables.sol\":678:692  address myaddr */\n      0x00\n        /* \"contracts/LocalVariables.sol\":703:704  1 */\n      0x01\n        /* \"contracts/LocalVariables.sol\":678:705  address myaddr = address(1) */\n      swap1\n      pop\n        /* \"contracts/LocalVariables.sol\":724:730  myaddr */\n      dup1\n        /* \"contracts/LocalVariables.sol\":732:737  myNum */\n      sload(0x00)\n        /* \"contracts/LocalVariables.sol\":716:738  return (myaddr, myNum) */\n      swap4\n      pop\n      swap4\n      pop\n      pop\n      pop\n        /* \"contracts/LocalVariables.sol\":469:746  function updateLocalAndStateVar() public returns(address, uint) {... */\n      swap1\n      swap2\n      jump\t// out\n        /* \"contracts/LocalVariables.sol\":267:457  function changeLocalVar() public returns(uint) {... */\n    tag_16:\n        /* \"contracts/LocalVariables.sol\":308:312  uint */\n      0x00\n        /* \"contracts/LocalVariables.sol\":351:364  uint localNum */\n      dup1\n        /* \"contracts/LocalVariables.sol\":367:370  100 */\n      0x64\n        /* \"contracts/LocalVariables.sol\":351:370  uint localNum = 100 */\n      swap1\n      pop\n        /* \"contracts/LocalVariables.sol\":389:397  localNum */\n      dup1\n        /* \"contracts/LocalVariables.sol\":381:386  myNum */\n      0x00\n        /* \"contracts/LocalVariables.sol\":381:397  myNum = localNum */\n      dup2\n      swap1\n      sstore\n      pop\n        /* \"contracts/LocalVariables.sol\":441:449  localNum */\n      dup1\n        /* \"contracts/LocalVariables.sol\":434:449  return localNum */\n      swap2\n      pop\n      pop\n        /* \"contracts/LocalVariables.sol\":267:457  function changeLocalVar() public returns(uint) {... */\n      swap1\n      jump\t// out\n        /* \"contracts/LocalVariables.sol\":93:110  uint public myNum */\n    tag_19:\n      sload(0x00)\n      dup2\n      jump\t// out\n        /* \"#utility.yul\":7:84   */\n    tag_26:\n        /* \"#utility.yul\":44:51   */\n      0x00\n        /* \"#utility.yul\":73:78   */\n      dup2\n        /* \"#utility.yul\":62:78   */\n      swap1\n      pop\n        /* \"#utility.yul\":7:84   */\n      swap2\n      swap1\n      pop\n      jump\t// out\n        /* \"#utility.yul\":90:208   */\n    tag_27:\n        /* \"#utility.yul\":177:201   */\n      tag_35\n        /* \"#utility.yul\":195:200   */\n      dup2\n        /* \"#utility.yul\":177:201   */\n      tag_26\n      jump\t// in\n    tag_35:\n        /* \"#utility.yul\":172:175   */\n      dup3\n        /* \"#utility.yul\":165:202   */\n      mstore\n        /* \"#utility.yul\":90:208   */\n      pop\n      pop\n      jump\t// out\n        /* \"#utility.yul\":214:436   */\n    tag_10:\n        /* \"#utility.yul\":307:311   */\n      0x00\n        /* \"#utility.yul\":345:347   */\n      0x20\n        /* \"#utility.yul\":334:343   */\n      dup3\n        /* \"#utility.yul\":330:348   */\n      add\n        /* \"#utility.yul\":322:348   */\n      swap1\n      pop\n        /* \"#utility.yul\":358:429   */\n      tag_37\n        /* \"#utility.yul\":426:427   */\n      0x00\n        /* \"#utility.yul\":415:424   */\n      dup4\n        /* \"#utility.yul\":411:428   */\n      add\n        /* \"#utility.yul\":402:408   */\n      dup5\n        /* \"#utility.yul\":358:429   */\n      tag_27\n      jump\t// in\n    tag_37:\n        /* \"#utility.yul\":214:436   */\n      swap3\n      swap2\n      pop\n      pop\n      jump\t// out\n        /* \"#utility.yul\":442:568   */\n    tag_28:\n        /* \"#utility.yul\":479:486   */\n      0x00\n        /* \"#utility.yul\":519:561   */\n      0xffffffffffffffffffffffffffffffffffffffff\n        /* \"#utility.yul\":512:517   */\n      dup3\n        /* \"#utility.yul\":508:562   */\n      and\n        /* \"#utility.yul\":497:562   */\n      swap1\n      pop\n        /* \"#utility.yul\":442:568   */\n      swap2\n      swap1\n      pop\n      jump\t// out\n        /* \"#utility.yul\":574:670   */\n    tag_29:\n        /* \"#utility.yul\":611:618   */\n      0x00\n        /* \"#utility.yul\":640:664   */\n      tag_40\n        /* \"#utility.yul\":658:663   */\n      dup3\n        /* \"#utility.yul\":640:664   */\n      tag_28\n      jump\t// in\n    tag_40:\n        /* \"#utility.yul\":629:664   */\n      swap1\n      pop\n        /* \"#utility.yul\":574:670   */\n      swap2\n      swap1\n      pop\n      jump\t// out\n        /* \"#utility.yul\":676:794   */\n    tag_30:\n        /* \"#utility.yul\":763:787   */\n      tag_42\n        /* \"#utility.yul\":781:786   */\n      dup2\n        /* \"#utility.yul\":763:787   */\n      tag_29\n      jump\t// in\n    tag_42:\n        /* \"#utility.yul\":758:761   */\n      dup3\n        /* \"#utility.yul\":751:788   */\n      mstore\n        /* \"#utility.yul\":676:794   */\n      pop\n      pop\n      jump\t// out\n        /* \"#utility.yul\":800:1132   */\n    tag_14:\n        /* \"#utility.yul\":921:925   */\n      0x00\n        /* \"#utility.yul\":959:961   */\n      0x40\n        /* \"#utility.yul\":948:957   */\n      dup3\n        /* \"#utility.yul\":944:962   */\n      add\n        /* \"#utility.yul\":936:962   */\n      swap1\n      pop\n        /* \"#utility.yul\":972:1043   */\n      tag_44\n        /* \"#utility.yul\":1040:1041   */\n      0x00\n        /* \"#utility.yul\":1029:1038   */\n      dup4\n        /* \"#utility.yul\":1025:1042   */\n      add\n        /* \"#utility.yul\":1016:1022   */\n      dup6\n        /* \"#utility.yul\":972:1043   */\n      tag_30\n      jump\t// in\n    tag_44:\n        /* \"#utility.yul\":1053:1125   */\n      tag_45\n        /* \"#utility.yul\":1121:1123   */\n      0x20\n        /* \"#utility.yul\":1110:1119   */\n      dup4\n        /* \"#utility.yul\":1106:1124   */\n      add\n        /* \"#utility.yul\":1097:1103   */\n      dup5\n        /* \"#utility.yul\":1053:1125   */\n      tag_27\n      jump\t// in\n    tag_45:\n        /* \"#utility.yul\":800:1132   */\n      swap4\n      swap3\n      pop\n      pop\n      pop\n      jump\t// out\n        /* \"#utility.yul\":1138:1318   */\n    tag_31:\n        /* \"#utility.yul\":1186:1263   */\n      0x4e487b7100000000000000000000000000000000000000000000000000000000\n        /* \"#utility.yul\":1183:1184   */\n      0x00\n        /* \"#utility.yul\":1176:1264   */\n      mstore\n        /* \"#utility.yul\":1283:1287   */\n      0x11\n        /* \"#utility.yul\":1280:1281   */\n      0x04\n        /* \"#utility.yul\":1273:1288   */\n      mstore\n        /* \"#utility.yul\":1307:1311   */\n      0x24\n        /* \"#utility.yul\":1304:1305   */\n      0x00\n        /* \"#utility.yul\":1297:1312   */\n      revert\n        /* \"#utility.yul\":1324:1515   */\n    tag_24:\n        /* \"#utility.yul\":1364:1367   */\n      0x00\n        /* \"#utility.yul\":1383:1403   */\n      tag_48\n        /* \"#utility.yul\":1401:1402   */\n      dup3\n        /* \"#utility.yul\":1383:1403   */\n      tag_26\n      jump\t// in\n    tag_48:\n        /* \"#utility.yul\":1378:1403   */\n      swap2\n      pop\n        /* \"#utility.yul\":1417:1437   */\n      tag_49\n        /* \"#utility.yul\":1435:1436   */\n      dup4\n        /* \"#utility.yul\":1417:1437   */\n      tag_26\n      jump\t// in\n    tag_49:\n        /* \"#utility.yul\":1412:1437   */\n      swap3\n      pop\n        /* \"#utility.yul\":1460:1461   */\n      dup3\n        /* \"#utility.yul\":1457:1458   */\n      dup3\n        /* \"#utility.yul\":1453:1462   */\n      add\n        /* \"#utility.yul\":1446:1462   */\n      swap1\n      pop\n        /* \"#utility.yul\":1481:1484   */\n      dup1\n        /* \"#utility.yul\":1478:1479   */\n      dup3\n        /* \"#utility.yul\":1475:1485   */\n      gt\n        /* \"#utility.yul\":1472:1508   */\n      iszero\n      tag_50\n      jumpi\n        /* \"#utility.yul\":1488:1506   */\n      tag_51\n      tag_31\n      jump\t// in\n    tag_51:\n        /* \"#utility.yul\":1472:1508   */\n    tag_50:\n        /* \"#utility.yul\":1324:1515   */\n      swap3\n      swap2\n      pop\n      pop\n      jump\t// out\n\n    auxdata: 0xa2646970667358221220c963b4f52992321002bdc8a34a72685fbe41f4ec78967cb4dd750d21fa88e24264736f6c634300081a0033\n}\n",
				"bytecode": {
					"linkReferences": {},
					"object": "6080604052348015600e575f80fd5b506102478061001c5f395ff3fe608060405234801561000f575f80fd5b506004361061004a575f3560e01c8063179690591461004e5780635b77d6ae1461006c5780639dd91d4e1461008b578063d4da005a146100a9575b5f80fd5b6100566100c7565b6040516100639190610132565b60405180910390f35b6100746100d4565b60405161008292919061018a565b60405180910390f35b610093610102565b6040516100a09190610132565b60405180910390f35b6100b1610115565b6040516100be9190610132565b60405180910390f35b5f80606490508091505090565b5f805f60649050602d816100e891906101de565b9050805f819055505f60019050805f549350935050509091565b5f8060649050805f819055508091505090565b5f5481565b5f819050919050565b61012c8161011a565b82525050565b5f6020820190506101455f830184610123565b92915050565b5f73ffffffffffffffffffffffffffffffffffffffff82169050919050565b5f6101748261014b565b9050919050565b6101848161016a565b82525050565b5f60408201905061019d5f83018561017b565b6101aa6020830184610123565b9392505050565b7f4e487b71000000000000000000000000000000000000000000000000000000005f52601160045260245ffd5b5f6101e88261011a565b91506101f38361011a565b925082820190508082111561020b5761020a6101b1565b5b9291505056fea2646970667358221220c963b4f52992321002bdc8a34a72685fbe41f4ec78967cb4dd750d21fa88e24264736f6c634300081a0033",
					"opcodes": "PUSH1 0x80 PUSH1 0x40 MSTORE CALLVALUE DUP1 ISZERO PUSH1 0xE JUMPI PUSH0 DUP1 REVERT JUMPDEST POP PUSH2 0x247 DUP1 PUSH2 0x1C PUSH0 CODECOPY PUSH0 RETURN INVALID PUSH1 0x80 PUSH1 0x40 MSTORE CALLVALUE DUP1 ISZERO PUSH2 0xF JUMPI PUSH0 DUP1 REVERT JUMPDEST POP PUSH1 0x4 CALLDATASIZE LT PUSH2 0x4A JUMPI PUSH0 CALLDATALOAD PUSH1 0xE0 SHR DUP1 PUSH4 0x17969059 EQ PUSH2 0x4E JUMPI DUP1 PUSH4 0x5B77D6AE EQ PUSH2 0x6C JUMPI DUP1 PUSH4 0x9DD91D4E EQ PUSH2 0x8B JUMPI DUP1 PUSH4 0xD4DA005A EQ PUSH2 0xA9 JUMPI JUMPDEST PUSH0 DUP1 REVERT JUMPDEST PUSH2 0x56 PUSH2 0xC7 JUMP JUMPDEST PUSH1 0x40 MLOAD PUSH2 0x63 SWAP2 SWAP1 PUSH2 0x132 JUMP JUMPDEST PUSH1 0x40 MLOAD DUP1 SWAP2 SUB SWAP1 RETURN JUMPDEST PUSH2 0x74 PUSH2 0xD4 JUMP JUMPDEST PUSH1 0x40 MLOAD PUSH2 0x82 SWAP3 SWAP2 SWAP1 PUSH2 0x18A JUMP JUMPDEST PUSH1 0x40 MLOAD DUP1 SWAP2 SUB SWAP1 RETURN JUMPDEST PUSH2 0x93 PUSH2 0x102 JUMP JUMPDEST PUSH1 0x40 MLOAD PUSH2 0xA0 SWAP2 SWAP1 PUSH2 0x132 JUMP JUMPDEST PUSH1 0x40 MLOAD DUP1 SWAP2 SUB SWAP1 RETURN JUMPDEST PUSH2 0xB1 PUSH2 0x115 JUMP JUMPDEST PUSH1 0x40 MLOAD PUSH2 0xBE SWAP2 SWAP1 PUSH2 0x132 JUMP JUMPDEST PUSH1 0x40 MLOAD DUP1 SWAP2 SUB SWAP1 RETURN JUMPDEST PUSH0 DUP1 PUSH1 0x64 SWAP1 POP DUP1 SWAP2 POP POP SWAP1 JUMP JUMPDEST PUSH0 DUP1 PUSH0 PUSH1 0x64 SWAP1 POP PUSH1 0x2D DUP2 PUSH2 0xE8 SWAP2 SWAP1 PUSH2 0x1DE JUMP JUMPDEST SWAP1 POP DUP1 PUSH0 DUP2 SWAP1 SSTORE POP PUSH0 PUSH1 0x1 SWAP1 POP DUP1 PUSH0 SLOAD SWAP4 POP SWAP4 POP POP POP SWAP1 SWAP2 JUMP JUMPDEST PUSH0 DUP1 PUSH1 0x64 SWAP1 POP DUP1 PUSH0 DUP2 SWAP1 SSTORE POP DUP1 SWAP2 POP POP SWAP1 JUMP JUMPDEST PUSH0 SLOAD DUP2 JUMP JUMPDEST PUSH0 DUP2 SWAP1 POP SWAP2 SWAP1 POP JUMP JUMPDEST PUSH2 0x12C DUP2 PUSH2 0x11A JUMP JUMPDEST DUP3 MSTORE POP POP JUMP JUMPDEST PUSH0 PUSH1 0x20 DUP3 ADD SWAP1 POP PUSH2 0x145 PUSH0 DUP4 ADD DUP5 PUSH2 0x123 JUMP JUMPDEST SWAP3 SWAP2 POP POP JUMP JUMPDEST PUSH0 PUSH20 0xFFFFFFFFFFFFFFFFFFFFFFFFFFFFFFFFFFFFFFFF DUP3 AND SWAP1 POP SWAP2 SWAP1 POP JUMP JUMPDEST PUSH0 PUSH2 0x174 DUP3 PUSH2 0x14B JUMP JUMPDEST SWAP1 POP SWAP2 SWAP1 POP JUMP JUMPDEST PUSH2 0x184 DUP2 PUSH2 0x16A JUMP JUMPDEST DUP3 MSTORE POP POP JUMP JUMPDEST PUSH0 PUSH1 0x40 DUP3 ADD SWAP1 POP PUSH2 0x19D PUSH0 DUP4 ADD DUP6 PUSH2 0x17B JUMP JUMPDEST PUSH2 0x1AA PUSH1 0x20 DUP4 ADD DUP5 PUSH2 0x123 JUMP JUMPDEST SWAP4 SWAP3 POP POP POP JUMP JUMPDEST PUSH32 0x4E487B7100000000000000000000000000000000000000000000000000000000 PUSH0 MSTORE PUSH1 0x11 PUSH1 0x4 MSTORE PUSH1 0x24 PUSH0 REVERT JUMPDEST PUSH0 PUSH2 0x1E8 DUP3 PUSH2 0x11A JUMP JUMPDEST SWAP2 POP PUSH2 0x1F3 DUP4 PUSH2 0x11A JUMP JUMPDEST SWAP3 POP DUP3 DUP3 ADD SWAP1 POP DUP1 DUP3 GT ISZERO PUSH2 0x20B JUMPI PUSH2 0x20A PUSH2 0x1B1 JUMP JUMPDEST JUMPDEST SWAP3 SWAP2 POP POP JUMP INVALID LOG2 PUSH5 0x6970667358 0x22 SLT KECCAK256 0xC9 PUSH4 0xB4F52992 ORIGIN LT MUL 0xBD 0xC8 LOG3 BLOBBASEFEE PUSH19 0x685FBE41F4EC78967CB4DD750D21FA88E24264 PUSH20 0x6F6C634300081A00330000000000000000000000 "
				},
				"gasEstimates": {
					"creation": {
						"codeDepositCost": "116600",
						"executionCost": "163",
						"totalCost": "116763"
					},
					"external": {
						"changeLocalVar()": "22480",
						"myNum()": "2468",
						"setLocalVar()": "323",
						"updateLocalAndStateVar()": "infinite"
					}
				},
				"methodIdentifiers": {
					"changeLocalVar()": "9dd91d4e",
					"myNum()": "d4da005a",
					"setLocalVar()": "17969059",
					"updateLocalAndStateVar()": "5b77d6ae"
				}
			},
			"storageLayout": {
				"storage": [
					{
						"astId": 3,
						"contract": "contracts/LocalVariables.sol:LocalVariables",
						"label": "myNum",
						"offset": 0,
						"slot": "0",
						"type": "t_uint256"
					}
				],
				"types": {
					"t_uint256": {
						"encoding": "inplace",
						"label": "uint256",
						"numberOfBytes": "32"
					}
				}
			},
			"userdoc": {
				"kind": "user",
				"methods": {},
				"version": 1
			}
		}
	}
}